{
  "_format": "hh-sol-artifact-1",
  "contractName": "IndexSwap",
  "sourceName": "contracts/IndexSwap.sol",
  "abi": [
    {
      "inputs": [
        {
          "internalType": "address",
          "name": "_oracal",
          "type": "address"
        },
        {
          "internalType": "address",
          "name": "_outAssest",
          "type": "address"
        },
        {
          "internalType": "address",
          "name": "_pancakeSwapAddress",
          "type": "address"
        },
        {
          "internalType": "address",
          "name": "_vault",
          "type": "address"
        }
      ],
      "stateMutability": "nonpayable",
      "type": "constructor"
    },
    {
      "anonymous": false,
      "inputs": [
        {
          "indexed": true,
          "internalType": "address",
          "name": "owner",
          "type": "address"
        },
        {
          "indexed": true,
          "internalType": "address",
          "name": "spender",
          "type": "address"
        },
        {
          "indexed": false,
          "internalType": "uint256",
          "name": "value",
          "type": "uint256"
        }
      ],
      "name": "Approval",
      "type": "event"
    },
    {
      "anonymous": false,
      "inputs": [],
      "name": "LOG_PUBLIC_SWAP_ENABLED",
      "type": "event"
    },
    {
      "anonymous": false,
      "inputs": [
        {
          "indexed": true,
          "internalType": "address",
          "name": "previousOwner",
          "type": "address"
        },
        {
          "indexed": true,
          "internalType": "address",
          "name": "newOwner",
          "type": "address"
        }
      ],
      "name": "OwnershipTransferred",
      "type": "event"
    },
    {
      "anonymous": false,
      "inputs": [
        {
          "indexed": true,
          "internalType": "address",
          "name": "from",
          "type": "address"
        },
        {
          "indexed": true,
          "internalType": "address",
          "name": "to",
          "type": "address"
        },
        {
          "indexed": false,
          "internalType": "uint256",
          "name": "value",
          "type": "uint256"
        }
      ],
      "name": "Transfer",
      "type": "event"
    },
    {
      "inputs": [],
      "name": "VERSION_NUMBER",
      "outputs": [
        {
          "internalType": "uint256",
          "name": "",
          "type": "uint256"
        }
      ],
      "stateMutability": "view",
      "type": "function"
    },
    {
      "inputs": [
        {
          "internalType": "address",
          "name": "assetManager",
          "type": "address"
        }
      ],
      "name": "addAssetManager",
      "outputs": [],
      "stateMutability": "nonpayable",
      "type": "function"
    },
    {
      "inputs": [
        {
          "internalType": "address",
          "name": "owner",
          "type": "address"
        },
        {
          "internalType": "address",
          "name": "spender",
          "type": "address"
        }
      ],
      "name": "allowance",
      "outputs": [
        {
          "internalType": "uint256",
          "name": "",
          "type": "uint256"
        }
      ],
      "stateMutability": "view",
      "type": "function"
    },
    {
      "inputs": [
        {
          "internalType": "address",
          "name": "spender",
          "type": "address"
        },
        {
          "internalType": "uint256",
          "name": "amount",
          "type": "uint256"
        }
      ],
      "name": "approve",
      "outputs": [
        {
          "internalType": "bool",
          "name": "",
          "type": "bool"
        }
      ],
      "stateMutability": "nonpayable",
      "type": "function"
    },
    {
      "inputs": [
        {
          "internalType": "address",
          "name": "",
          "type": "address"
        }
      ],
      "name": "assetManagers",
      "outputs": [
        {
          "internalType": "bool",
          "name": "",
          "type": "bool"
        }
      ],
      "stateMutability": "view",
      "type": "function"
    },
    {
      "inputs": [
        {
          "internalType": "address",
          "name": "account",
          "type": "address"
        }
      ],
      "name": "balanceOf",
      "outputs": [
        {
          "internalType": "uint256",
          "name": "",
          "type": "uint256"
        }
      ],
      "stateMutability": "view",
      "type": "function"
    },
    {
      "inputs": [
        {
          "internalType": "uint256",
          "name": "amount",
          "type": "uint256"
        }
      ],
      "name": "burn",
      "outputs": [],
      "stateMutability": "nonpayable",
      "type": "function"
    },
    {
      "inputs": [
        {
          "internalType": "address",
          "name": "account",
          "type": "address"
        },
        {
          "internalType": "uint256",
          "name": "amount",
          "type": "uint256"
        }
      ],
      "name": "burnFrom",
      "outputs": [],
      "stateMutability": "nonpayable",
      "type": "function"
    },
    {
      "inputs": [],
      "name": "currentRate",
      "outputs": [
        {
          "internalType": "uint256",
          "name": "numerator",
          "type": "uint256"
        },
        {
          "internalType": "uint256",
          "name": "denominator",
          "type": "uint256"
        }
      ],
      "stateMutability": "view",
      "type": "function"
    },
    {
      "inputs": [],
      "name": "decimals",
      "outputs": [
        {
          "internalType": "uint8",
          "name": "",
          "type": "uint8"
        }
      ],
      "stateMutability": "view",
      "type": "function"
    },
    {
      "inputs": [
        {
          "internalType": "address",
          "name": "spender",
          "type": "address"
        },
        {
          "internalType": "uint256",
          "name": "subtractedValue",
          "type": "uint256"
        }
      ],
      "name": "decreaseAllowance",
      "outputs": [
        {
          "internalType": "bool",
          "name": "",
          "type": "bool"
        }
      ],
      "stateMutability": "nonpayable",
      "type": "function"
    },
    {
      "inputs": [],
      "name": "getETH",
      "outputs": [
        {
          "internalType": "address",
          "name": "",
          "type": "address"
        }
      ],
      "stateMutability": "view",
      "type": "function"
    },
    {
      "inputs": [
        {
          "internalType": "address",
          "name": "crypto",
          "type": "address"
        }
      ],
      "name": "getPathForETH",
      "outputs": [
        {
          "internalType": "address[]",
          "name": "",
          "type": "address[]"
        }
      ],
      "stateMutability": "view",
      "type": "function"
    },
    {
      "inputs": [
        {
          "internalType": "address",
          "name": "token",
          "type": "address"
        }
      ],
      "name": "getPathForToken",
      "outputs": [
        {
          "internalType": "address[]",
          "name": "",
          "type": "address[]"
        }
      ],
      "stateMutability": "view",
      "type": "function"
    },
    {
      "inputs": [],
      "name": "getTokenAndVaultBalance",
      "outputs": [
        {
          "internalType": "uint256[]",
          "name": "tokenXBalance",
          "type": "uint256[]"
        },
        {
          "internalType": "uint256",
          "name": "vaultValue",
          "type": "uint256"
        }
      ],
      "stateMutability": "view",
      "type": "function"
    },
    {
      "inputs": [
        {
          "internalType": "address",
          "name": "spender",
          "type": "address"
        },
        {
          "internalType": "uint256",
          "name": "addedValue",
          "type": "uint256"
        }
      ],
      "name": "increaseAllowance",
      "outputs": [
        {
          "internalType": "bool",
          "name": "",
          "type": "bool"
        }
      ],
      "stateMutability": "nonpayable",
      "type": "function"
    },
    {
      "inputs": [],
      "name": "indexPrice",
      "outputs": [
        {
          "internalType": "uint256",
          "name": "",
          "type": "uint256"
        }
      ],
      "stateMutability": "view",
      "type": "function"
    },
    {
      "inputs": [
        {
          "internalType": "address[]",
          "name": "tokens",
          "type": "address[]"
        },
        {
          "internalType": "uint96[]",
          "name": "denorms",
          "type": "uint96[]"
        }
      ],
      "name": "initialize",
      "outputs": [],
      "stateMutability": "nonpayable",
      "type": "function"
    },
    {
      "inputs": [],
      "name": "initializeDefult",
      "outputs": [],
      "stateMutability": "nonpayable",
      "type": "function"
    },
    {
      "inputs": [],
      "name": "investInFund",
      "outputs": [],
      "stateMutability": "payable",
      "type": "function"
    },
    {
      "inputs": [],
      "name": "name",
      "outputs": [
        {
          "internalType": "string",
          "name": "",
          "type": "string"
        }
      ],
      "stateMutability": "view",
      "type": "function"
    },
    {
      "inputs": [],
      "name": "owner",
      "outputs": [
        {
          "internalType": "address",
          "name": "",
          "type": "address"
        }
      ],
      "stateMutability": "view",
      "type": "function"
    },
    {
      "inputs": [],
      "name": "pancakeSwapRouter",
      "outputs": [
        {
          "internalType": "contract IUniswapV2Router02",
          "name": "",
          "type": "address"
        }
      ],
      "stateMutability": "view",
      "type": "function"
    },
    {
      "inputs": [
        {
          "internalType": "uint256[]",
          "name": "newWeights",
          "type": "uint256[]"
        }
      ],
      "name": "rebalance",
      "outputs": [],
      "stateMutability": "nonpayable",
      "type": "function"
    },
    {
      "inputs": [],
      "name": "renounceOwnership",
      "outputs": [],
      "stateMutability": "nonpayable",
      "type": "function"
    },
    {
      "inputs": [],
      "name": "symbol",
      "outputs": [
        {
          "internalType": "string",
          "name": "",
          "type": "string"
        }
      ],
      "stateMutability": "view",
      "type": "function"
    },
    {
      "inputs": [],
      "name": "totalSupply",
      "outputs": [
        {
          "internalType": "uint256",
          "name": "",
          "type": "uint256"
        }
      ],
      "stateMutability": "view",
      "type": "function"
    },
    {
      "inputs": [
        {
          "internalType": "address",
          "name": "to",
          "type": "address"
        },
        {
          "internalType": "uint256",
          "name": "amount",
          "type": "uint256"
        }
      ],
      "name": "transfer",
      "outputs": [
        {
          "internalType": "bool",
          "name": "",
          "type": "bool"
        }
      ],
      "stateMutability": "nonpayable",
      "type": "function"
    },
    {
      "inputs": [
        {
          "internalType": "address",
          "name": "from",
          "type": "address"
        },
        {
          "internalType": "address",
          "name": "to",
          "type": "address"
        },
        {
          "internalType": "uint256",
          "name": "amount",
          "type": "uint256"
        }
      ],
      "name": "transferFrom",
      "outputs": [
        {
          "internalType": "bool",
          "name": "",
          "type": "bool"
        }
      ],
      "stateMutability": "nonpayable",
      "type": "function"
    },
    {
      "inputs": [
        {
          "internalType": "address",
          "name": "newOwner",
          "type": "address"
        }
      ],
      "name": "transferOwnership",
      "outputs": [],
      "stateMutability": "nonpayable",
      "type": "function"
    },
    {
      "inputs": [
        {
          "internalType": "uint256",
          "name": "_numerator",
          "type": "uint256"
        },
        {
          "internalType": "uint256",
          "name": "_denominator",
          "type": "uint256"
        }
      ],
      "name": "updateRate",
      "outputs": [],
      "stateMutability": "nonpayable",
      "type": "function"
    },
    {
      "inputs": [
        {
          "internalType": "uint256",
          "name": "tokenAmount",
          "type": "uint256"
        }
      ],
      "name": "withdrawFromFundNew",
      "outputs": [],
      "stateMutability": "nonpayable",
      "type": "function"
    },
    {
      "stateMutability": "payable",
      "type": "receive"
    }
  ],
  "bytecode": "0x60c0604052738babbb98678facc7342735486c851abd7a0d17ca6080908152738a9424745056eb399fd19a0ec26a14316684e27460a05262000046906009906002620001e3565b5060408051808201909152600180825260208201526200006b90600b90600262000240565b503480156200007957600080fd5b506040516200361f3803806200361f8339810160408190526200009c9162000392565b60405180604001604052806007815260200166494e4445584c5960c81b8152506040518060400160405280600381526020016209288b60eb1b8152508160039080519060200190620000f0929190620002e1565b50805162000106906004906020840190620002e1565b505050620001236200011d6200018d60201b60201c565b62000191565b600680546001600160a01b03199081166001600160a01b039485161790915560148054821695841695909517909455600880548516918316919091179055601580549093169116179055336000908152601660205260409020805460ff191660011790556200042c565b3390565b600580546001600160a01b038381166001600160a01b0319831681179093556040519116919082907f8be0079c531659141344cd1fd0a4f28419497f9722a3daafe3b4186f6b6457e090600090a35050565b82600281019282156200022e579160200282015b828111156200022e57825182546001600160a01b0319166001600160a01b03909116178255602090920191600190910190620001f7565b506200023c9291506200035e565b5090565b6001830191839082156200022e5791602002820160005b838211156200029d57835183826101000a8154816001600160601b03021916908360ff1602179055509260200192600c01602081600b0104928301926001030262000257565b8015620002d25782816101000a8154906001600160601b030219169055600c01602081600b010492830192600103026200029d565b50506200023c9291506200035e565b828054620002ef90620003ef565b90600052602060002090601f0160209004810192826200031357600085556200022e565b82601f106200032e57805160ff19168380011785556200022e565b828001600101855582156200022e579182015b828111156200022e57825182559160200191906001019062000341565b5b808211156200023c57600081556001016200035f565b80516001600160a01b03811681146200038d57600080fd5b919050565b60008060008060808587031215620003a957600080fd5b620003b48562000375565b9350620003c46020860162000375565b9250620003d46040860162000375565b9150620003e46060860162000375565b905092959194509250565b600181811c908216806200040457607f821691505b602082108114156200042657634e487b7160e01b600052602260045260246000fd5b50919050565b6131e3806200043c6000396000f3fe6080604052600436106101e75760003560e01c806379cc679011610102578063a6e65ca611610095578063d2db86df11610064578063d2db86df1461057f578063dd62ed3e146105a2578063f2fde38b146105c2578063f9f8bdb7146105e257600080fd5b8063a6e65ca6146104e2578063a9059cbb14610512578063b0849c1c14610532578063ca0e7ed51461055f57600080fd5b8063955a333b116100d1578063955a333b1461046d57806395d89b411461048d578063987ea899146104a2578063a457c2d7146104c257600080fd5b806379cc6790146103fa5780638025e3031461041a57806381a8e6051461042f5780638da5cb5b1461044f57600080fd5b8063245589951161017a57806342966c681161014957806342966c681461036f57806370a082311461038f578063715018a6146103c5578063780d5710146103da57600080fd5b806324558995146102f3578063313ce56714610313578063395093511461032f578063405abb411461034f57600080fd5b806314f6c3be116101b657806314f6c3be1461028957806318160ddd146102b657806321f7e3ea146102cb57806323b872dd146102d357600080fd5b806306fdde03146101f3578063095ea7b31461021e5780630c2cd2cd1461024e57806310bace8c1461026557600080fd5b366101ee57005b600080fd5b3480156101ff57600080fd5b50610208610612565b6040516102159190612b54565b60405180910390f35b34801561022a57600080fd5b5061023e610239366004612b9c565b6106a4565b6040519015158152602001610215565b34801561025a57600080fd5b506102636106bc565b005b34801561027157600080fd5b5061027b60075481565b604051908152602001610215565b34801561029557600080fd5b5061029e610a29565b6040516001600160a01b039091168152602001610215565b3480156102c257600080fd5b5060025461027b565b610263610a9c565b3480156102df57600080fd5b5061023e6102ee366004612bc8565b610fae565b3480156102ff57600080fd5b5060065461029e906001600160a01b031681565b34801561031f57600080fd5b5060405160128152602001610215565b34801561033b57600080fd5b5061023e61034a366004612b9c565b610fd2565b34801561035b57600080fd5b5061026361036a366004612c09565b610ff4565b34801561037b57600080fd5b5061026361038a366004612c2b565b611013565b34801561039b57600080fd5b5061027b6103aa366004612c44565b6001600160a01b031660009081526020819052604090205490565b3480156103d157600080fd5b50610263611020565b3480156103e657600080fd5b506102636103f5366004612ccc565b611056565b34801561040657600080fd5b50610263610415366004612b9c565b6116e0565b34801561042657600080fd5b5061027b600181565b34801561043b57600080fd5b5061026361044a366004612c2b565b6116f9565b34801561045b57600080fd5b506005546001600160a01b031661029e565b34801561047957600080fd5b50610263610488366004612dae565b6118f6565b34801561049957600080fd5b50610208611beb565b3480156104ae57600080fd5b506102636104bd366004612c44565b611bfa565b3480156104ce57600080fd5b5061023e6104dd366004612b9c565b611ca1565b3480156104ee57600080fd5b5061023e6104fd366004612c44565b60166020526000908152604090205460ff1681565b34801561051e57600080fd5b5061023e61052d366004612b9c565b611d1c565b34801561053e57600080fd5b5061055261054d366004612c44565b611d2a565b6040516102159190612e5e565b34801561056b57600080fd5b5061055261057a366004612c44565b611e21565b34801561058b57600080fd5b50610594611eea565b604051610215929190612e71565b3480156105ae57600080fd5b5061027b6105bd366004612eb9565b61215b565b3480156105ce57600080fd5b506102636105dd366004612c44565b612186565b3480156105ee57600080fd5b506012546013546105fd919082565b60408051928352602083019190915201610215565b60606003805461062190612ef2565b80601f016020809104026020016040519081016040528092919081815260200182805461064d90612ef2565b801561069a5780601f1061066f5761010080835404028352916020019161069a565b820191906000526020600020905b81548152906001019060200180831161067d57829003601f168201915b5050505050905090565b6000336106b281858561221e565b5060019392505050565b6005546001600160a01b031633146106ef5760405162461bcd60e51b81526004016106e690612f2d565b60405180910390fd5b6002600080805b838110156109db576040805160c0810182526001815264ffffffffff42166020820152908101600b836002811061072f5761072f612f62565b60029182820401919006600c029054906101000a90046001600160601b03166001600160601b03168152602001600b836002811061076f5761076f612f62565b60029182820401919006600c029054906101000a90046001600160601b03166001600160601b031681526020018260ff1681526020016000815250600d6000600984600281106107c1576107c1612f62565b01546001600160a01b0316815260208082019290925260409081016000208351815493850151928501516060860151608087015165ffffffffffff1990961692151565ffffffffff0019169290921761010064ffffffffff90951694909402939093176601000000000000600160f01b031916600160301b6001600160601b03948516026bffffffffffffffffffffffff60901b191617600160901b93909116929092029190911760ff60f01b1916600160f01b60ff9093169290920291909117815560a090910151600190910155600c600982600281106108a5576108a5612f62565b015481546001810183556000928352602083200180546001600160a01b0319166001600160a01b03928316179055601454600c8054919092169163afa9986091859081106108f5576108f5612f62565b60009182526020909120015460155460405160e084901b6001600160e01b03191681526001600160a01b03928316600482015291166024820152604401602060405180830381865afa15801561094f573d6000803e3d6000fd5b505050506040513d601f19601f820116820180604052508101906109739190612f78565b905061097f8382612343565b92506109c584600b846002811061099857610998612f62565b60029182820401919006600c029054906101000a90046001600160601b03166001600160601b0316612356565b93505080806109d390612fa7565b9150506106f6565b50600e8290556109eb81846123a8565b600f556011805460ff191660011790556040517f183bed17d33ee5be9a47bb997aee6a152d84a34309cdb66f76301de0a40a138990600090a1505050565b600654604080516315ab88c960e31b815290516000926001600160a01b03169163ad5c46489160048083019260209291908290030181865afa158015610a73573d6000803e3d6000fd5b505050506040513d601f19601f82011682018060405250810190610a979190612fc2565b905090565b600c5434906000908190818167ffffffffffffffff811115610ac057610ac0612c61565b604051908082528060200260200182016040528015610ae9578160200160208202803683370190505b50905060008267ffffffffffffffff811115610b0757610b07612c61565b604051908082528060200260200182016040528015610b30578160200160208202803683370190505b509050610b3b611eea565b945090506000610b4a60025490565b1115610bc45760005b600c54811015610bc257610b9385610b8d89858581518110610b7757610b77612f62565b60200260200101516123b490919063ffffffff16565b906123a8565b838281518110610ba557610ba5612f62565b602090810291909101015280610bba81612fa7565b915050610b53565b505b6000610bd142600f612fdf565b905060005b600c54811015610e80576000600c8281548110610bf557610bf5612f62565b60009182526020808320909101546001600160a01b0316808352600d82526040808420815160c081018352815460ff8082161515835264ffffffffff610100830416968301969096526001600160601b03600160301b8204811694830194909452600160901b81049093166060820152600160f01b90920490931660808201526001929092015460a0830152925090610c8d60025490565b610cbe57610cb7600e54610b8d84604001516001600160601b03168e6123b490919063ffffffff16565b9050610cdb565b868481518110610cd057610cd0612f62565b602002602001015190505b6006546060906001600160a01b0316637ff36ab5836000610cfb88611d2a565b6008546040516001600160e01b031960e087901b168152610d2c9392916001600160a01b0316908d90600401612ff7565b60006040518083038185885af1158015610d4a573d6000803e3d6000fd5b50505050506040513d6000823e601f3d908101601f19168201604052610d73919081019061302c565b601454600c80549293506000926001600160a01b039092169163afa99860919089908110610da357610da3612f62565b60009182526020909120015460155460405160e084901b6001600160e01b03191681526001600160a01b03928316600482015291166024820152604401602060405180830381865afa158015610dfd573d6000803e3d6000fd5b505050506040513d601f19601f82011682018060405250810190610e219190612f78565b9050610e66610e5f670de0b6b3a7640000610b8d85600181518110610e4857610e48612f62565b6020026020010151856123b490919063ffffffff16565b8d90612343565b9b5050505050508080610e7890612fa7565b915050610bd6565b5086861115610eec5760405162461bcd60e51b815260206004820152603260248201527f616d6f756e7420616674657220736c6970706167652063616e27742062652067604482015271726561746572207468616e206265666f726560701b60648201526084016106e6565b6000610ef760025490565b1115610f0e57610f0786866123c0565b9650610f12565b8596505b610f1c33886123f6565b604051600090339047908381818185875af1925050503d8060008114610f5e576040519150601f19603f3d011682016040523d82523d6000602084013e610f63565b606091505b5050905080610fa45760405162461bcd60e51b815260206004820152600d60248201526c1c99599d5b990819985a5b1959609a1b60448201526064016106e6565b5050505050505050565b600033610fbc8582856124d5565b610fc7858585612549565b506001949350505050565b6000336106b2818585610fe5838361215b565b610fef9190612fdf565b61221e565b81610ffe57600080fd5b8061100857600080fd5b601291909155601355565b61101d3382612717565b50565b6005546001600160a01b0316331461104a5760405162461bcd60e51b81526004016106e690612f2d565b611054600061285d565b565b3360009081526016602052604090205460ff1661107257600080fd5b600c5460009081908190818167ffffffffffffffff81111561109657611096612c61565b6040519080825280602002602001820160405280156110bf578160200160208202803683370190505b50905060008267ffffffffffffffff8111156110dd576110dd612c61565b604051908082528060200260200182016040528015611106578160200160208202803683370190505b509050611111611eea565b94509050600061112060025490565b11156116d75760005b600c5481101561117e5761114f85610b8d612710858581518110610b7757610b77612f62565b83828151811061116157611161612f62565b60209081029190910101528061117681612fa7565b915050611129565b50600061118c42600f612fdf565b905060005b600c548110156114d3578381815181106111ad576111ad612f62565b60200260200101518982815181106111c7576111c7612f62565b60200260200101511015611446576000600c82815481106111ea576111ea612f62565b60009182526020822001546008546040516370a0823160e01b81526001600160a01b0391821660048201529116925082906370a0823190602401602060405180830381865afa158015611241573d6000803e3d6000fd5b505050506040513d601f19601f820116820180604052508101906112659190612f78565b905060006112ae8c858151811061127e5761127e612f62565b602002602001015188868151811061129857611298612f62565b60200260200101516128af90919063ffffffff16565b905060006112e28886815181106112c7576112c7612f62565b6020026020010151610b8d84866123b490919063ffffffff16565b905061131d600c86815481106112fa576112fa612f62565b6000918252602090912001546008546001600160a01b03918216911630846128bb565b611355600c868154811061133357611333612f62565b6000918252602090912001546006546001600160a01b039182169116836129f9565b600654600c80546060926001600160a01b0316916318cbafe59185916000916113a391908c90811061138957611389612f62565b6000918252602090912001546001600160a01b0316611e21565b308c6040518663ffffffff1660e01b81526004016113c59594939291906130b2565b6000604051808303816000875af11580156113e4573d6000803e3d6000fd5b505050506040513d6000823e601f3d908101601f1916820160405261140c919081019061302c565b905061143b8160018151811061142457611424612f62565b60200260200101518d61234390919063ffffffff16565b5050505050506114c1565b83818151811061145857611458612f62565b602002602001015189828151811061147257611472612f62565b602002602001015111156114c15760006114b185838151811061149757611497612f62565b60200260200101518b848151811061129857611298612f62565b90506114bd8982612343565b9850505b806114cb81612fa7565b915050611191565b5047955060005b848110156116d4576000600c82815481106114f7576114f7612f62565b60009182526020909120015485516001600160a01b03909116915085908390811061152457611524612f62565b60200260200101518a838151811061153e5761153e612f62565b602002602001015111156116c157600061157d86848151811061156357611563612f62565b60200260200101518c858151811061129857611298612f62565b9050600081116115cf5760405162461bcd60e51b815260206004820152601960248201527f776569676874206e6f742067726561746572207468616e20300000000000000060448201526064016106e6565b60008a116116155760405162461bcd60e51b8152602060048201526013602482015272191a5d88189e480c0b081cdd5b5dd95a59da1d606a1b60448201526064016106e6565b60006116258b610b8d8c856123b4565b6006549091506001600160a01b0316637ff36ab582600061164587611d2a565b6008546040516001600160e01b031960e087901b1681526116769392916001600160a01b0316908c90600401612ff7565b60006040518083038185885af1158015611694573d6000803e3d6000fd5b50505050506040513d6000823e601f3d908101601f191682016040526116bd919081019061302c565b5050505b50806116cc81612fa7565b9150506114da565b50505b50505050505050565b6116eb8233836124d5565b6116f58282612717565b5050565b336000908152602081905260409020548111156117465760405162461bcd60e51b815260206004820152600b60248201526a6e6f742062616c616e636560a81b60448201526064016106e6565b600061175342600f612fdf565b9050600061176060025490565b905061176c3384612717565b60005b600c548110156118f0576000600c828154811061178e5761178e612f62565b60009182526020822001546008546040516370a0823160e01b81526001600160a01b0391821660048201529116925082919082906370a0823190602401602060405180830381865afa1580156117e8573d6000803e3d6000fd5b505050506040513d601f19601f8201168201806040525081019061180c9190612f78565b9050600061181e86610b8d848b6123b4565b60085490915061183a9085906001600160a01b031630846128bb565b6006546118529085906001600160a01b0316836129f9565b6006546001600160a01b03166318cbafe582600061186f88611e21565b338c6040518663ffffffff1660e01b81526004016118919594939291906130b2565b6000604051808303816000875af11580156118b0573d6000803e3d6000fd5b505050506040513d6000823e601f3d908101601f191682016040526118d8919081019061302c565b505050505080806118e890612fa7565b91505061176f565b50505050565b6005546001600160a01b031633146119205760405162461bcd60e51b81526004016106e690612f2d565b600c541561195e5760405162461bcd60e51b815260206004820152600b60248201526a125392551250531256915160aa1b60448201526064016106e6565b826000805b82811015611ba1576040805160c0810182526001815264ffffffffff4216602082015290810186868481811061199b5761199b612f62565b90506020020160208101906119b091906130ee565b6001600160601b031681526020018686848181106119d0576119d0612f62565b90506020020160208101906119e591906130ee565b6001600160601b031681526020018260ff1681526020016000815250600d6000898985818110611a1757611a17612f62565b9050602002016020810190611a2c9190612c44565b6001600160a01b0316815260208082019290925260409081016000208351815493850151928501516060860151608087015165ffffffffffff1990961692151565ffffffffff0019169290921761010064ffffffffff90951694909402939093176601000000000000600160f01b031916600160301b6001600160601b03948516026bffffffffffffffffffffffff60901b191617600160901b93909116929092029190911760ff60f01b1916600160f01b60ff9093169290920291909117815560a090910151600190910155600c878783818110611b0d57611b0d612f62565b9050602002016020810190611b229190612c44565b81546001810183556000928352602090922090910180546001600160a01b0319166001600160a01b03909216919091179055611b8d82868684818110611b6a57611b6a612f62565b9050602002016020810190611b7f91906130ee565b6001600160601b0316612356565b915080611b9981612fa7565b915050611963565b50600e8190556011805460ff19166001908117909155600f556040517f183bed17d33ee5be9a47bb997aee6a152d84a34309cdb66f76301de0a40a138990600090a1505050505050565b60606004805461062190612ef2565b3360009081526016602052604090205460ff16611c1657600080fd5b6001600160a01b038116611c7d5760405162461bcd60e51b815260206004820152602860248201527f4f776e61626c653a206e6577206d616e6167657220697320746865207a65726f604482015267206164647265737360c01b60648201526084016106e6565b6001600160a01b03166000908152601660205260409020805460ff19166001179055565b60003381611caf828661215b565b905083811015611d0f5760405162461bcd60e51b815260206004820152602560248201527f45524332303a2064656372656173656420616c6c6f77616e63652062656c6f77604482015264207a65726f60d81b60648201526084016106e6565b610fc7828686840361221e565b6000336106b2818585612549565b604080516002808252606080830184529260009291906020830190803683375050600654604080516315ab88c960e31b815290519394506001600160a01b039091169263ad5c4648925060048083019260209291908290030181865afa158015611d98573d6000803e3d6000fd5b505050506040513d601f19601f82011682018060405250810190611dbc9190612fc2565b81600081518110611dcf57611dcf612f62565b60200260200101906001600160a01b031690816001600160a01b0316815250508281600181518110611e0357611e03612f62565b6001600160a01b039092166020928302919091019091015292915050565b604080516002808252606080830184529260009291906020830190803683370190505090508281600081518110611e5a57611e5a612f62565b6001600160a01b03928316602091820292909201810191909152600654604080516315ab88c960e31b81529051919093169263ad5c46489260048083019391928290030181865afa158015611eb3573d6000803e3d6000fd5b505050506040513d601f19601f82011682018060405250810190611ed79190612fc2565b81600181518110611e0357611e03612f62565b600c54606090600090818167ffffffffffffffff811115611f0d57611f0d612c61565b604051908082528060200260200182016040528015611f36578160200160208202803683370190505b509050600080611f4560025490565b11156121405760005b83811015612135576000600c8281548110611f6b57611f6b612f62565b60009182526020822001546008546040516370a0823160e01b81526001600160a01b0391821660048201529116925082906370a0823190602401602060405180830381865afa158015611fc2573d6000803e3d6000fd5b505050506040513d601f19601f82011682018060405250810190611fe69190612f78565b601454600c80549293506000926001600160a01b039092169163afa9986091908790811061201657612016612f62565b60009182526020909120015460155460405160e084901b6001600160e01b03191681526001600160a01b03928316600482015291166024820152604401602060405180830381865afa158015612070573d6000803e3d6000fd5b505050506040513d601f19601f820116820180604052508101906120949190612f78565b905060006120a282846123b4565b9050808786815181106120b7576120b7612f62565b60209081029190910101526120cc8682612343565b95506000861161211e5760405162461bcd60e51b815260206004820152601f60248201527f73756d207072696365206973206e6f742067726561746572207468616e20300060448201526064016106e6565b50505050808061212d90612fa7565b915050611f4e565b509094909350915050565b50506040805160008082526020820190925294909350915050565b6001600160a01b03918216600090815260016020908152604080832093909416825291909152205490565b6005546001600160a01b031633146121b05760405162461bcd60e51b81526004016106e690612f2d565b6001600160a01b0381166122155760405162461bcd60e51b815260206004820152602660248201527f4f776e61626c653a206e6577206f776e657220697320746865207a65726f206160448201526564647265737360d01b60648201526084016106e6565b61101d8161285d565b6001600160a01b0383166122805760405162461bcd60e51b8152602060048201526024808201527f45524332303a20617070726f76652066726f6d20746865207a65726f206164646044820152637265737360e01b60648201526084016106e6565b6001600160a01b0382166122e15760405162461bcd60e51b815260206004820152602260248201527f45524332303a20617070726f766520746f20746865207a65726f206164647265604482015261737360f01b60648201526084016106e6565b6001600160a01b0383811660008181526001602090815260408083209487168084529482529182902085905590518481527f8c5be1e5ebec7d5bd14f71427d1e84f3dd0314c0f7b2291e5b200ac8c7c3b92591015b60405180910390a3505050565b600061234f8284612fdf565b9392505050565b6000806123638385612fdf565b90508381101561234f5760405162461bcd60e51b815260206004820152601060248201526f4552525f4144445f4f564552464c4f5760801b60448201526064016106e6565b600061234f8284613117565b600061234f8284613139565b6000806123cc60025490565b90506123ee83610b8d670de0b6b3a76400006123e888866123b4565b906123b4565b949350505050565b6001600160a01b03821661244c5760405162461bcd60e51b815260206004820152601f60248201527f45524332303a206d696e7420746f20746865207a65726f20616464726573730060448201526064016106e6565b806002600082825461245e9190612fdf565b90915550506001600160a01b0382166000908152602081905260408120805483929061248b908490612fdf565b90915550506040518181526001600160a01b038316906000907fddf252ad1be2c89b69c2b068fc378daa952ba7f163c4a11628f55a4df523b3ef9060200160405180910390a35050565b60006124e1848461215b565b905060001981146118f0578181101561253c5760405162461bcd60e51b815260206004820152601d60248201527f45524332303a20696e73756666696369656e7420616c6c6f77616e636500000060448201526064016106e6565b6118f0848484840361221e565b6001600160a01b0383166125ad5760405162461bcd60e51b815260206004820152602560248201527f45524332303a207472616e736665722066726f6d20746865207a65726f206164604482015264647265737360d81b60648201526084016106e6565b6001600160a01b03821661260f5760405162461bcd60e51b815260206004820152602360248201527f45524332303a207472616e7366657220746f20746865207a65726f206164647260448201526265737360e81b60648201526084016106e6565b6001600160a01b038316600090815260208190526040902054818110156126875760405162461bcd60e51b815260206004820152602660248201527f45524332303a207472616e7366657220616d6f756e7420657863656564732062604482015265616c616e636560d01b60648201526084016106e6565b6001600160a01b038085166000908152602081905260408082208585039055918516815290812080548492906126be908490612fdf565b92505081905550826001600160a01b0316846001600160a01b03167fddf252ad1be2c89b69c2b068fc378daa952ba7f163c4a11628f55a4df523b3ef8460405161270a91815260200190565b60405180910390a36118f0565b6001600160a01b0382166127775760405162461bcd60e51b815260206004820152602160248201527f45524332303a206275726e2066726f6d20746865207a65726f206164647265736044820152607360f81b60648201526084016106e6565b6001600160a01b038216600090815260208190526040902054818110156127eb5760405162461bcd60e51b815260206004820152602260248201527f45524332303a206275726e20616d6f756e7420657863656564732062616c616e604482015261636560f01b60648201526084016106e6565b6001600160a01b038316600090815260208190526040812083830390556002805484929061281a908490613158565b90915550506040518281526000906001600160a01b038516907fddf252ad1be2c89b69c2b068fc378daa952ba7f163c4a11628f55a4df523b3ef90602001612336565b600580546001600160a01b038381166001600160a01b0319831681179093556040519116919082907f8be0079c531659141344cd1fd0a4f28419497f9722a3daafe3b4186f6b6457e090600090a35050565b600061234f8284613158565b604080516001600160a01b0385811660248301528481166044830152606480830185905283518084039091018152608490920183526020820180516001600160e01b03166323b872dd60e01b179052915160009283929088169161291f919061316f565b6000604051808303816000865af19150503d806000811461295c576040519150601f19603f3d011682016040523d82523d6000602084013e612961565b606091505b509150915081801561298b57508051158061298b57508080602001905181019061298b919061318b565b6129f15760405162461bcd60e51b815260206004820152603160248201527f5472616e7366657248656c7065723a3a7472616e7366657246726f6d3a207472604482015270185b9cd9995c919c9bdb4819985a5b1959607a1b60648201526084016106e6565b505050505050565b604080516001600160a01b038481166024830152604480830185905283518084039091018152606490920183526020820180516001600160e01b031663095ea7b360e01b1790529151600092839290871691612a55919061316f565b6000604051808303816000865af19150503d8060008114612a92576040519150601f19603f3d011682016040523d82523d6000602084013e612a97565b606091505b5091509150818015612ac1575080511580612ac1575080806020019051810190612ac1919061318b565b612b215760405162461bcd60e51b815260206004820152602b60248201527f5472616e7366657248656c7065723a3a73616665417070726f76653a2061707060448201526a1c9bdd994819985a5b195960aa1b60648201526084016106e6565b5050505050565b60005b83811015612b43578181015183820152602001612b2b565b838111156118f05750506000910152565b6020815260008251806020840152612b73816040850160208701612b28565b601f01601f19169190910160400192915050565b6001600160a01b038116811461101d57600080fd5b60008060408385031215612baf57600080fd5b8235612bba81612b87565b946020939093013593505050565b600080600060608486031215612bdd57600080fd5b8335612be881612b87565b92506020840135612bf881612b87565b929592945050506040919091013590565b60008060408385031215612c1c57600080fd5b50508035926020909101359150565b600060208284031215612c3d57600080fd5b5035919050565b600060208284031215612c5657600080fd5b813561234f81612b87565b634e487b7160e01b600052604160045260246000fd5b604051601f8201601f1916810167ffffffffffffffff81118282101715612ca057612ca0612c61565b604052919050565b600067ffffffffffffffff821115612cc257612cc2612c61565b5060051b60200190565b60006020808385031215612cdf57600080fd5b823567ffffffffffffffff811115612cf657600080fd5b8301601f81018513612d0757600080fd5b8035612d1a612d1582612ca8565b612c77565b81815260059190911b82018301908381019087831115612d3957600080fd5b928401925b82841015612d5757833582529284019290840190612d3e565b979650505050505050565b60008083601f840112612d7457600080fd5b50813567ffffffffffffffff811115612d8c57600080fd5b6020830191508360208260051b8501011115612da757600080fd5b9250929050565b60008060008060408587031215612dc457600080fd5b843567ffffffffffffffff80821115612ddc57600080fd5b612de888838901612d62565b90965094506020870135915080821115612e0157600080fd5b50612e0e87828801612d62565b95989497509550505050565b600081518084526020808501945080840160005b83811015612e535781516001600160a01b031687529582019590820190600101612e2e565b509495945050505050565b60208152600061234f6020830184612e1a565b604080825283519082018190526000906020906060840190828701845b82811015612eaa57815184529284019290840190600101612e8e565b50505092019290925292915050565b60008060408385031215612ecc57600080fd5b8235612ed781612b87565b91506020830135612ee781612b87565b809150509250929050565b600181811c90821680612f0657607f821691505b60208210811415612f2757634e487b7160e01b600052602260045260246000fd5b50919050565b6020808252818101527f4f776e61626c653a2063616c6c6572206973206e6f7420746865206f776e6572604082015260600190565b634e487b7160e01b600052603260045260246000fd5b600060208284031215612f8a57600080fd5b5051919050565b634e487b7160e01b600052601160045260246000fd5b6000600019821415612fbb57612fbb612f91565b5060010190565b600060208284031215612fd457600080fd5b815161234f81612b87565b60008219821115612ff257612ff2612f91565b500190565b8481526080602082015260006130106080830186612e1a565b6001600160a01b03949094166040830152506060015292915050565b6000602080838503121561303f57600080fd5b825167ffffffffffffffff81111561305657600080fd5b8301601f8101851361306757600080fd5b8051613075612d1582612ca8565b81815260059190911b8201830190838101908783111561309457600080fd5b928401925b82841015612d5757835182529284019290840190613099565b85815284602082015260a0604082015260006130d160a0830186612e1a565b6001600160a01b0394909416606083015250608001529392505050565b60006020828403121561310057600080fd5b81356001600160601b038116811461234f57600080fd5b60008261313457634e487b7160e01b600052601260045260246000fd5b500490565b600081600019048311821515161561315357613153612f91565b500290565b60008282101561316a5761316a612f91565b500390565b60008251613181818460208701612b28565b9190910192915050565b60006020828403121561319d57600080fd5b8151801515811461234f57600080fdfea264697066735822122097cdc49bc5d902baf84e97976e8ce5b40ee2b8597bd71aecfbb1edd493b13dd664736f6c634300080a0033",
  "linkReferences": {},
  "deployedLinkReferences": {}
}