{
    "_format": "hh-sol-artifact-1",
    "contractName": "PriceOracle",
    "sourceName": "contracts/PriceOracal.sol",
    "abi": [
        {
            "anonymous": false,
            "inputs": [
                {
                    "indexed": true,
                    "internalType": "address",
                    "name": "pair",
                    "type": "address"
                },
                {
                    "indexed": false,
                    "internalType": "uint256",
                    "name": "priceCumulative",
                    "type": "uint256"
                },
                {
                    "indexed": false,
                    "internalType": "uint32",
                    "name": "blockTimestamp",
                    "type": "uint32"
                },
                {
                    "indexed": false,
                    "internalType": "bool",
                    "name": "latestIsSlotA",
                    "type": "bool"
                }
            ],
            "name": "PriceUpdate",
            "type": "event"
        },
        {
            "inputs": [],
            "name": "MIN_T",
            "outputs": [
                {
                    "internalType": "uint32",
                    "name": "",
                    "type": "uint32"
                }
            ],
            "stateMutability": "view",
            "type": "function"
        },
        {
            "inputs": [
                {
                    "internalType": "address",
                    "name": "uniswapV2Pair",
                    "type": "address"
                }
            ],
            "name": "addNewPair",
            "outputs": [],
            "stateMutability": "nonpayable",
            "type": "function"
        },
        {
            "inputs": [],
            "name": "getBlockTimestamp",
            "outputs": [
                {
                    "internalType": "uint32",
                    "name": "",
                    "type": "uint32"
                }
            ],
            "stateMutability": "view",
            "type": "function"
        },
        {
            "inputs": [
                {
                    "internalType": "address",
                    "name": "tokenAddress",
                    "type": "address"
                }
            ],
            "name": "getDecimal",
            "outputs": [
                {
                    "internalType": "uint256",
                    "name": "",
                    "type": "uint256"
                }
            ],
            "stateMutability": "view",
            "type": "function"
        },
        {
            "inputs": [
                {
                    "internalType": "address",
                    "name": "_assetOne",
                    "type": "address"
                },
                {
                    "internalType": "address",
                    "name": "_assetTwo",
                    "type": "address"
                }
            ],
            "name": "getPairAddress",
            "outputs": [
                {
                    "internalType": "address",
                    "name": "",
                    "type": "address"
                }
            ],
            "stateMutability": "view",
            "type": "function"
        },
        {
            "inputs": [
                {
                    "internalType": "address",
                    "name": "",
                    "type": "address"
                }
            ],
            "name": "getPairDetails",
            "outputs": [
                {
                    "internalType": "uint256",
                    "name": "priceCumulativeSlotA",
                    "type": "uint256"
                },
                {
                    "internalType": "uint256",
                    "name": "priceCumulativeSlotB",
                    "type": "uint256"
                },
                {
                    "internalType": "uint32",
                    "name": "lastUpdateSlotA",
                    "type": "uint32"
                },
                {
                    "internalType": "uint32",
                    "name": "lastUpdateSlotB",
                    "type": "uint32"
                },
                {
                    "internalType": "bool",
                    "name": "latestIsSlotA",
                    "type": "bool"
                },
                {
                    "internalType": "bool",
                    "name": "initialized",
                    "type": "bool"
                }
            ],
            "stateMutability": "view",
            "type": "function"
        },
        {
            "inputs": [
                {
                    "internalType": "uint256",
                    "name": "amountA",
                    "type": "uint256"
                },
                {
                    "internalType": "address[]",
                    "name": "path",
                    "type": "address[]"
                }
            ],
            "name": "getPrice",
            "outputs": [
                {
                    "internalType": "uint256",
                    "name": "amount",
                    "type": "uint256"
                }
            ],
            "stateMutability": "view",
            "type": "function"
        },
        {
            "inputs": [
                {
                    "internalType": "address",
                    "name": "uniswapV2Pair",
                    "type": "address"
                }
            ],
            "name": "getResult",
            "outputs": [
                {
                    "internalType": "uint224",
                    "name": "price",
                    "type": "uint224"
                },
                {
                    "internalType": "uint32",
                    "name": "T",
                    "type": "uint32"
                }
            ],
            "stateMutability": "nonpayable",
            "type": "function"
        },
        {
            "inputs": [
                {
                    "internalType": "address",
                    "name": "token_address",
                    "type": "address"
                },
                {
                    "internalType": "address",
                    "name": "token1_address",
                    "type": "address"
                }
            ],
            "name": "getTokenPrice",
            "outputs": [
                {
                    "internalType": "uint256",
                    "name": "",
                    "type": "uint256"
                }
            ],
            "stateMutability": "view",
            "type": "function"
        },
        {
            "inputs": [],
            "name": "indexPrice",
            "outputs": [
                {
                    "internalType": "uint256",
                    "name": "",
                    "type": "uint256"
                }
            ],
            "stateMutability": "view",
            "type": "function"
        },
        {
            "inputs": [
                {
                    "internalType": "address",
                    "name": "_uniSwapRouter",
                    "type": "address"
                }
            ],
            "name": "initialize",
            "outputs": [],
            "stateMutability": "nonpayable",
            "type": "function"
        },
        {
            "inputs": [],
            "name": "uniswapV2Router",
            "outputs": [
                {
                    "internalType": "contract IUniswapV2Router02",
                    "name": "",
                    "type": "address"
                }
            ],
            "stateMutability": "view",
            "type": "function"
        },
        {
            "inputs": [],
            "name": "updateIndexPrice",
            "outputs": [
                {
                    "internalType": "uint224",
                    "name": "price",
                    "type": "uint224"
                }
            ],
            "stateMutability": "nonpayable",
            "type": "function"
        }
    ],
    "bytecode": "0x608060405234801561001057600080fd5b50611782806100206000396000f3fe608060405234801561001057600080fd5b50600436106100cf5760003560e01c8063966da2b81161008c578063afa9986011610066578063afa998601461025c578063b4f69a2f1461026f578063c4d66de814610282578063f51b5531146102b757600080fd5b8063966da2b814610214578063975adc7514610227578063a41d40e11461024757600080fd5b80630c0fa81a146100d457806310bace8c146100fa5780631694505e1461010357806321affc961461012e578063446a37e0146101c0578063796b89b9146101f7575b600080fd5b6100e76100e2366004611477565b6102c0565b6040519081526020015b60405180910390f35b6100e760015481565b600054610116906001600160a01b031681565b6040516001600160a01b0390911681526020016100f1565b61018561013c3660046113a1565b600260208190526000918252604090912080546001820154919092015463ffffffff8082169164010000000081049091169060ff600160401b8204811691600160481b90041686565b60408051968752602087019590955263ffffffff938416948601949094529116606084015215156080830152151560a082015260c0016100f1565b6101d36101ce3660046113a1565b61042c565b604080516001600160e01b03909316835263ffffffff9091166020830152016100f1565b6101ff61070f565b60405163ffffffff90911681526020016100f1565b6100e76102223660046113a1565b610725565b61022f6107a1565b6040516001600160e01b0390911681526020016100f1565b61025a6102553660046113a1565b610955565b005b6100e761026a3660046113d9565b610a67565b61011661027d3660046113d9565b610d38565b61025a6102903660046113a1565b600080546001600160a01b0319166001600160a01b03929092169190911790556001600455565b6101ff6104b081565b600060028210156103185760405162461bcd60e51b815260206004820181905260248201527f696e76616c6964206e756d626572206f6620706172616d7320696e207061746860448201526064015b60405180910390fd5b508260015b82811015610424576000806103a4868661033860018761169d565b81811061035557634e487b7160e01b600052603260045260246000fd5b905060200201602081019061036a91906113a1565b87878681811061038a57634e487b7160e01b600052603260045260246000fd5b905060200201602081019061039f91906113a1565b610e40565b91509150600082116104025760405162461bcd60e51b815260206004820152602160248201527f50616972204e6f6e204578697374656e74207c7c204e6f204c697175696469746044820152607960f81b606482015260840161030f565b61040d84838361101b565b93505050808061041c906116d9565b91505061031d565b509392505050565b6001600160a01b0381166000908152600260208181526040808420815160c081018352815481526001820154938101939093529092015463ffffffff808216938301939093526401000000008104909216606082015260ff600160401b8304811615156080830152600160481b909204909116151560a082018190528291906105015760405162461bcd60e51b815260206004820152602160248201527f5461726f7450726963654f7261636c653a204e4f545f494e495449414c495a456044820152601160fa1b606482015260840161030f565b6001600160a01b03841660009081526002602052604081209061052261070f565b90506000836080015161053957836060015161053f565b83604001515b9050600061054c886110f8565b905060006104b061055d84866116b4565b63ffffffff161061065057856080015161057b57856020015161057e565b85515b90508560800151156105b8576001850182905560028501805467ffffffff00000000191664010000000063ffffffff8716021790556105d3565b81855560028501805463ffffffff191663ffffffff86161790555b608086015160028601805468ff000000000000000019169115600160401b81029290921790556040805184815263ffffffff87166020820152908101919091526001600160a01b038a16907fc58c63744da19faddae8e37958053493f49d71b8f78d4facf6002cd1c2618fcf9060600160405180910390a2610684565b8560800151610663578560400151610669565b85606001515b9250856080015161067b578551610681565b85602001515b90505b61068e83856116b4565b96506104b063ffffffff881610156106e15760405162461bcd60e51b815260206004820152601660248201527550726963654f7261636c653a204e4f545f524541445960501b604482015260640161030f565b61070263ffffffff88166106f5838561169d565b6106ff9190611550565b90565b9750505050505050915091565b6000610720640100000000426116f4565b905090565b6000816001600160a01b031663313ce5676040518163ffffffff1660e01b815260040160206040518083038186803b15801561076057600080fd5b505afa158015610774573d6000803e3d6000fd5b505050506040513d601f19601f8201168201806040525081019061079891906114f1565b60ff1692915050565b60035460009081805b8281101561093c576000670de0b6b3a764000090506000806000600385815481106107e557634e487b7160e01b600052603260045260246000fd5b9060005260206000200160009054906101000a90046001600160a01b03166001600160a01b0316630902f1ac6040518163ffffffff1660e01b815260040160606040518083038186803b15801561083b57600080fd5b505afa15801561084f573d6000803e3d6000fd5b505050506040513d601f19601f820116820180604052508101906108739190611411565b60008054604051630153543560e21b8152600481018a90526001600160701b0395861660248201819052949095166044860181905293975092955063ffffffff919091169350916001600160a01b039091169063054d50d49060640160206040518083038186803b1580156108e757600080fd5b505afa1580156108fb573d6000803e3d6000fd5b505050506040513d601f19601f8201168201806040525081019061091f919061145f565b905080965050505050508080610934906116d9565b9150506107aa565b5060045461094b90829061124e565b6001555090919050565b6001600160a01b038116600090815260026020526040812090610977836110f8565b9050600061098361070f565b828455600180850184905560028501805467ffffffffffffffff191663ffffffff841690811764010000000082021769ffff000000000000000019166901010000000000000000179091556003805480840182556000919091527fc2575a0e9e593c00f959f8c92f12db2869c3395a3b0502d05e2516446f71f85b0180546001600160a01b0319166001600160a01b038916908117909155604080518781526020810193909352820192909252919250907fc58c63744da19faddae8e37958053493f49d71b8f78d4facf6002cd1c2618fcf9060600160405180910390a250505050565b600080836001600160a01b031663313ce5676040518163ffffffff1660e01b815260040160206040518083038186803b158015610aa357600080fd5b505afa158015610ab7573d6000803e3d6000fd5b505050506040513d601f19601f82011682018060405250810190610adb91906114f1565b60ff1690506000610aed82600a6115a7565b610af890600161167e565b905060008060009054906101000a90046001600160a01b03166001600160a01b031663c45a01556040518163ffffffff1660e01b815260040160206040518083038186803b158015610b4957600080fd5b505afa158015610b5d573d6000803e3d6000fd5b505050506040513d601f19601f82011682018060405250810190610b8191906113bd565b60405163e6a4390560e01b81526001600160a01b0388811660048301528781166024830152919091169063e6a439059060440160206040518083038186803b158015610bcc57600080fd5b505afa158015610be0573d6000803e3d6000fd5b505050506040513d601f19601f82011682018060405250810190610c0491906113bd565b90506000806000836001600160a01b0316630902f1ac6040518163ffffffff1660e01b815260040160606040518083038186803b158015610c4457600080fd5b505afa158015610c58573d6000803e3d6000fd5b505050506040513d601f19601f82011682018060405250810190610c7c9190611411565b60008054604051630153543560e21b8152600481018b90526001600160701b0395861660248201819052949095166044860181905293975092955063ffffffff919091169350916001600160a01b039091169063054d50d49060640160206040518083038186803b158015610cf057600080fd5b505afa158015610d04573d6000803e3d6000fd5b505050506040513d601f19601f82011682018060405250810190610d28919061145f565b9750505050505050505b92915050565b600080546040805163c45a015560e01b8152905183926001600160a01b03169163c45a0155916004808301926020929190829003018186803b158015610d7d57600080fd5b505afa158015610d91573d6000803e3d6000fd5b505050506040513d601f19601f82011682018060405250810190610db591906113bd565b60405163e6a4390560e01b81526001600160a01b0386811660048301528581166024830152919091169063e6a439059060440160206040518083038186803b158015610e0057600080fd5b505afa158015610e14573d6000803e3d6000fd5b505050506040513d601f19601f82011682018060405250810190610e3891906113bd565b949350505050565b60008060008060009054906101000a90046001600160a01b03166001600160a01b031663c45a01556040518163ffffffff1660e01b815260040160206040518083038186803b158015610e9257600080fd5b505afa158015610ea6573d6000803e3d6000fd5b505050506040513d601f19601f82011682018060405250810190610eca91906113bd565b60405163e6a4390560e01b81526001600160a01b0387811660048301528681166024830152919091169063e6a439059060440160206040518083038186803b158015610f1557600080fd5b505afa158015610f29573d6000803e3d6000fd5b505050506040513d601f19601f82011682018060405250810190610f4d91906113bd565b9050600080826001600160a01b0316630902f1ac6040518163ffffffff1660e01b815260040160606040518083038186803b158015610f8b57600080fd5b505afa158015610f9f573d6000803e3d6000fd5b505050506040513d601f19601f82011682018060405250810190610fc39190611411565b506001600160701b031691506001600160701b031691506000610fe68888611261565b509050806001600160a01b0316886001600160a01b03161461100957818361100c565b82825b90999098509650505050505050565b60008084116110785760405162461bcd60e51b815260206004820152602360248201527f50616e63616b654c6962726172793a20494e53554646494349454e545f414d4f60448201526215539560ea1b606482015260840161030f565b6000831180156110885750600082115b6110e35760405162461bcd60e51b815260206004820152602660248201527f50616e63616b654c6962726172793a20494e53554646494349454e545f4c495160448201526555494449545960d01b606482015260840161030f565b826110ee838661167e565b610e389190611550565b6000816001600160a01b0316635909c0d56040518163ffffffff1660e01b815260040160206040518083038186803b15801561113357600080fd5b505afa158015611147573d6000803e3d6000fd5b505050506040513d601f19601f8201168201806040525081019061116b919061145f565b90506000806000846001600160a01b0316630902f1ac6040518163ffffffff1660e01b815260040160606040518083038186803b1580156111ab57600080fd5b505afa1580156111bf573d6000803e3d6000fd5b505050506040513d601f19601f820116820180604052508101906111e39190611411565b9250925092506000611207846111f885611357565b6001600160e01b031690611370565b905060008261121461070f565b61121e91906116b4565b905061123963ffffffff82166001600160e01b03841661167e565b6112439087611512565b979650505050505050565b600061125a8284611550565b9392505050565b600080826001600160a01b0316846001600160a01b031614156112d25760405162461bcd60e51b815260206004820152602360248201527f50616e63616b654c6962726172793a204944454e544943414c5f41444452455360448201526253455360e81b606482015260840161030f565b826001600160a01b0316846001600160a01b0316106112f25782846112f5565b83835b90925090506001600160a01b0382166113505760405162461bcd60e51b815260206004820152601c60248201527f50616e63616b654c6962726172793a205a45524f5f4144445245535300000000604482015260640161030f565b9250929050565b6000610d32600160701b6001600160701b03841661164f565b600061125a6001600160701b0383168461152a565b80516001600160701b038116811461139c57600080fd5b919050565b6000602082840312156113b2578081fd5b813561125a81611734565b6000602082840312156113ce578081fd5b815161125a81611734565b600080604083850312156113eb578081fd5b82356113f681611734565b9150602083013561140681611734565b809150509250929050565b600080600060608486031215611425578081fd5b61142e84611385565b925061143c60208501611385565b9150604084015163ffffffff81168114611454578182fd5b809150509250925092565b600060208284031215611470578081fd5b5051919050565b60008060006040848603121561148b578283fd5b83359250602084013567ffffffffffffffff808211156114a9578384fd5b818601915086601f8301126114bc578384fd5b8135818111156114ca578485fd5b8760208260051b85010111156114de578485fd5b6020830194508093505050509250925092565b600060208284031215611502578081fd5b815160ff8116811461125a578182fd5b6000821982111561152557611525611708565b500190565b60006001600160e01b03838116806115445761154461171e565b92169190910492915050565b60008261155f5761155f61171e565b500490565b600181815b8085111561159f57816000190482111561158557611585611708565b8085161561159257918102915b93841c9390800290611569565b509250929050565b600061125a83836000826115bd57506001610d32565b816115ca57506000610d32565b81600181146115e057600281146115ea57611606565b6001915050610d32565b60ff8411156115fb576115fb611708565b50506001821b610d32565b5060208310610133831016604e8410600b8410161715611629575081810a610d32565b6116338383611564565b806000190482111561164757611647611708565b029392505050565b60006001600160e01b038281168482168115158284048211161561167557611675611708565b02949350505050565b600081600019048311821515161561169857611698611708565b500290565b6000828210156116af576116af611708565b500390565b600063ffffffff838116908316818110156116d1576116d1611708565b039392505050565b60006000198214156116ed576116ed611708565b5060010190565b6000826117035761170361171e565b500690565b634e487b7160e01b600052601160045260246000fd5b634e487b7160e01b600052601260045260246000fd5b6001600160a01b038116811461174957600080fd5b5056fea2646970667358221220a410a6b08acf9842f608fb20b0b0cde79a3e38186d968c789a19c4f54b25afbc64736f6c63430008040033",
    "linkReferences": {},
    "deployedLinkReferences": {}
}